{
  "contractName": "MultiPartyRoulette",
  "abi": [
    {
      "inputs": [],
      "payable": false,
      "stateMutability": "nonpayable",
      "type": "constructor"
    },
    {
      "anonymous": false,
      "inputs": [
        {
          "indexed": false,
          "name": "creator",
          "type": "address"
        },
        {
          "indexed": false,
          "name": "tableNumber",
          "type": "uint16"
        },
        {
          "indexed": false,
          "name": "betAmount",
          "type": "uint256"
        }
      ],
      "name": "AwaitingBets",
      "type": "event"
    },
    {
      "anonymous": false,
      "inputs": [
        {
          "indexed": false,
          "name": "participant",
          "type": "address"
        },
        {
          "indexed": false,
          "name": "tableNumber",
          "type": "uint16"
        },
        {
          "indexed": false,
          "name": "red",
          "type": "bool"
        }
      ],
      "name": "BetPlaced",
      "type": "event"
    },
    {
      "anonymous": false,
      "inputs": [
        {
          "indexed": false,
          "name": "tableNumber",
          "type": "uint16"
        }
      ],
      "name": "betsClosed",
      "type": "event"
    },
    {
      "anonymous": false,
      "inputs": [
        {
          "indexed": false,
          "name": "participant",
          "type": "address"
        },
        {
          "indexed": false,
          "name": "tableNumber",
          "type": "uint16"
        },
        {
          "indexed": false,
          "name": "won",
          "type": "bool"
        }
      ],
      "name": "Results",
      "type": "event"
    },
    {
      "anonymous": false,
      "inputs": [
        {
          "indexed": false,
          "name": "tableNumber",
          "type": "uint16"
        }
      ],
      "name": "TableClosed",
      "type": "event"
    },
    {
      "constant": false,
      "inputs": [
        {
          "name": "numOfPlayers",
          "type": "uint8"
        },
        {
          "name": "hashedOutcome",
          "type": "bytes32"
        },
        {
          "name": "betAmount",
          "type": "uint256"
        }
      ],
      "name": "spinWheel",
      "outputs": [],
      "payable": false,
      "stateMutability": "nonpayable",
      "type": "function"
    },
    {
      "constant": false,
      "inputs": [
        {
          "name": "tableNumber",
          "type": "uint16"
        },
        {
          "name": "red",
          "type": "bool"
        }
      ],
      "name": "placeBet",
      "outputs": [],
      "payable": true,
      "stateMutability": "payable",
      "type": "function"
    },
    {
      "constant": false,
      "inputs": [
        {
          "name": "tableNumber",
          "type": "uint16"
        },
        {
          "name": "red",
          "type": "bool"
        },
        {
          "name": "salt",
          "type": "bytes32"
        }
      ],
      "name": "cashOut",
      "outputs": [],
      "payable": false,
      "stateMutability": "nonpayable",
      "type": "function"
    }
  ],
  "bytecode": "0x608060405234801561001057600080fd5b50336000806101000a81548173ffffffffffffffffffffffffffffffffffffffff021916908373ffffffffffffffffffffffffffffffffffffffff16021790555061112a806100606000396000f300608060405260043610610057576000357c0100000000000000000000000000000000000000000000000000000000900463ffffffff16806318e40a9b1461005c578063b0bf04d9146100a4578063c5566a36146100ef575b600080fd5b34801561006857600080fd5b506100a2600480360381019080803560ff16906020019092919080356000191690602001909291908035906020019092919050505061011f565b005b3480156100b057600080fd5b506100ed600480360381019080803561ffff16906020019092919080351515906020019092919080356000191690602001909291905050506103a2565b005b61011d600480360381019080803561ffff169060200190929190803515159060200190929190505050610b7a565b005b6000610129610ecd565b600033925060008660ff16118015610144575060078660ff16105b151561014f57600080fd5b60a0604051908101604052808473ffffffffffffffffffffffffffffffffffffffff168152602001866000191681526020018581526020016000600281111561019457fe5b815260200160408051908101604052808960ff166040519080825280602002602001820160405280156101d65781602001602082028038833980820191505090505b5081526020018960ff1660405190808252806020026020018201604052801561020e5781602001602082028038833980820191505090505b50815250815250915060018054905090506001829080600181540180825580915050906001820390600052602060002090600602016000909192909190915060008201518160000160006101000a81548173ffffffffffffffffffffffffffffffffffffffff021916908373ffffffffffffffffffffffffffffffffffffffff160217905550602082015181600101906000191690556040820151816002015560608201518160030160006101000a81548160ff021916908360028111156102d257fe5b021790555060808201518160040160008201518160000190805190602001906102fc929190610f27565b506020820151816001019080519060200190610319929190610fb1565b5050505050507f252b0034bb730460904e4cf3b3995b084a8c996da61e5342f2fad78725f9f36c838286604051808473ffffffffffffffffffffffffffffffffffffffff1673ffffffffffffffffffffffffffffffffffffffff1681526020018361ffff1661ffff168152602001828152602001935050505060405180910390a1505050505050565b6000806103ad611057565b6000806000806000806103bf8c610e7f565b15156103ca57600080fd5b8a61040a576040805190810160405280600581526020017f626c61636b000000000000000000000000000000000000000000000000000000815250610441565b6040805190810160405280600381526020017f72656400000000000000000000000000000000000000000000000000000000008152505b8a6040516020018083805190602001908083835b60208310151561047a5780518252602082019150602081019050602083039250610455565b6001836020036101000a0380198251168184511680821785525050505050509050018260001916600019168152602001925050506040516020818303038152906040526040518082805190602001908083835b6020831015156104f257805182526020820191506020810190506020830392506104cd565b6001836020036101000a0380198251168184511680821785525050505050509050019150506040518091039020985060018c61ffff1681548110151561053457fe5b90600052602060002090600602019750886000191688600101546000191614151561055e57600080fd5b87600401604080519081016040529081600082018054806020026020016040519081016040528092919081815260200182805480156105f257602002820191906000526020600020905b8160009054906101000a900473ffffffffffffffffffffffffffffffffffffffff1673ffffffffffffffffffffffffffffffffffffffff16815260200190600101908083116105a8575b505050505081526020016001820180548060200260200160405190810160405280929190818152602001828054801561066f57602002820191906000526020600020906000905b82829054906101000a900460ff161515815260200190600101906020826000010492830192600103820291508084116106395790505b505050505081525050965060009550600094505b8660000151518560ff1610156106d7578a151587602001518660ff168151811015156106ab57fe5b906020019060200201511515146106c35760006106c6565b60015b860195508480600101955050610683565b876002015487600001515102935060008660ff16141561088f576000809054906101000a900473ffffffffffffffffffffffffffffffffffffffff1673ffffffffffffffffffffffffffffffffffffffff166108fc60028681151561073857fe5b06610744876002610ea4565b019081150290604051600060405180830381858888f19350505050158015610770573d6000803e3d6000fd5b508760000160009054906101000a900473ffffffffffffffffffffffffffffffffffffffff1673ffffffffffffffffffffffffffffffffffffffff166108fc6107ba866002610ea4565b9081150290604051600060405180830381858888f193505050501580156107e5573d6000803e3d6000fd5b507f1ae915d44ecd88771cfe0efc0a59cd87b3bc56f9816d9194e6d73d2f051f40fa8860000160009054906101000a900473ffffffffffffffffffffffffffffffffffffffff168d6001604051808473ffffffffffffffffffffffffffffffffffffffff1673ffffffffffffffffffffffffffffffffffffffff1681526020018361ffff1661ffff16815260200182151515158152602001935050505060405180910390a1610b6c565b7f1ae915d44ecd88771cfe0efc0a59cd87b3bc56f9816d9194e6d73d2f051f40fa8860000160009054906101000a900473ffffffffffffffffffffffffffffffffffffffff168d6000604051808473ffffffffffffffffffffffffffffffffffffffff1673ffffffffffffffffffffffffffffffffffffffff1681526020018361ffff1661ffff16815260200182151515158152602001935050505060405180910390a161093d8487610ea4565b9250600091505b8660000151518260ff161015610a91578a151587602001518360ff1681518110151561096c57fe5b90602001906020020151151514905080156109e75786600001518260ff1681518110151561099657fe5b9060200190602002015173ffffffffffffffffffffffffffffffffffffffff166108fc849081150290604051600060405180830381858888f193505050501580156109e5573d6000803e3d6000fd5b505b7f1ae915d44ecd88771cfe0efc0a59cd87b3bc56f9816d9194e6d73d2f051f40fa87600001518360ff16815181101515610a1d57fe5b906020019060200201518d83604051808473ffffffffffffffffffffffffffffffffffffffff1673ffffffffffffffffffffffffffffffffffffffff1681526020018361ffff1661ffff16815260200182151515158152602001935050505060405180910390a18180600101925050610944565b6000809054906101000a900473ffffffffffffffffffffffffffffffffffffffff1673ffffffffffffffffffffffffffffffffffffffff166108fc8760ff1686811515610ada57fe5b069081150290604051600060405180830381858888f19350505050158015610b06573d6000803e3d6000fd5b5060028860030160006101000a81548160ff02191690836002811115610b2857fe5b02179055507eea9d9d4126ccb568b7a4745b39b3d5799099e1957433daa80517f02e993abb8c604051808261ffff1661ffff16815260200191505060405180910390a15b505050505050505050505050565b6000806060610b8885610e7f565b1515610b9357600080fd5b60018561ffff16815481101515610ba657fe5b90600052602060002090600602019250349150826002015482148015610bf3575060006002811115610bd457fe5b8360030160009054906101000a900460ff166002811115610bf157fe5b145b1515610bfe57600080fd5b826004016000013390806001815401808255809150509060018203906000526020600020016000909192909190916101000a81548173ffffffffffffffffffffffffffffffffffffffff021916908373ffffffffffffffffffffffffffffffffffffffff160217905550508260040160010184908060018154018082558091505090600182039060005260206000209060209182820401919006909192909190916101000a81548160ff021916908315150217905550507f4a13e01a40a01769c201b792a3ea53ca9fb9bc286d1c4664126a177a0d15261c338686604051808473ffffffffffffffffffffffffffffffffffffffff1673ffffffffffffffffffffffffffffffffffffffff1681526020018361ffff1661ffff16815260200182151515158152602001935050505060405180910390a182600401600001805480602002602001604051908101604052809291908181526020018280548015610dbb57602002820191906000526020600020905b8160009054906101000a900473ffffffffffffffffffffffffffffffffffffffff1673ffffffffffffffffffffffffffffffffffffffff1681526020019060010190808311610d71575b50505050509050600073ffffffffffffffffffffffffffffffffffffffff16816001835103815181101515610dec57fe5b9060200190602002015173ffffffffffffffffffffffffffffffffffffffff161415610e785760018360030160006101000a81548160ff02191690836002811115610e3357fe5b02179055507f31d970ac189dc84275008e653376c6588e3829720b9ab4751e80e2f6002e37aa85604051808261ffff1661ffff16815260200191505060405180910390a15b5050505050565b6000808261ffff1610158015610e9d57506001805490508261ffff16105b9050919050565b60008160ff168260ff1684811515610eb857fe5b068403811515610ec457fe5b04905092915050565b60c060405190810160405280600073ffffffffffffffffffffffffffffffffffffffff168152602001600080191681526020016000815260200160006002811115610f1457fe5b8152602001610f21611071565b81525090565b828054828255906000526020600020908101928215610fa0579160200282015b82811115610f9f5782518260006101000a81548173ffffffffffffffffffffffffffffffffffffffff021916908373ffffffffffffffffffffffffffffffffffffffff16021790555091602001919060010190610f47565b5b509050610fad919061108b565b5090565b82805482825590600052602060002090601f016020900481019282156110465791602002820160005b8382111561101757835183826101000a81548160ff0219169083151502179055509260200192600101602081600001049283019260010302610fda565b80156110445782816101000a81549060ff0219169055600101602081600001049283019260010302611017565b505b50905061105391906110ce565b5090565b604080519081016040528060608152602001606081525090565b604080519081016040528060608152602001606081525090565b6110cb91905b808211156110c757600081816101000a81549073ffffffffffffffffffffffffffffffffffffffff021916905550600101611091565b5090565b90565b6110fb91905b808211156110f757600081816101000a81549060ff0219169055506001016110d4565b5090565b905600a165627a7a72305820c977f4553c395035a1b4b565e258895981e3f2319f81553812f82d54bed9b6dc0029",
  "source": "pragma solidity ^0.4.19;\n\ncontract MultiPartyRoulette {\n  event AwaitingBets(address creator, uint16 tableNumber, uint256 betAmount);\n  event BetPlaced(address participant, uint16 tableNumber, bool red);\n  event betsClosed(uint16 tableNumber);\n  event Results(address participant, uint16 tableNumber, bool won);\n  event TableClosed(uint16 tableNumber);\n\n  string constant win =  \"You win!\";\n\n  address private House;\n\n  RouletteWheel[] tables;\n\n  enum WheelState {SPINNING, STOPPED, CLOSED}\n\n  struct RouletteWheel {\n    address croupier;\n    bytes32 hashedOutcome;\n    uint256 betAmount;\n    WheelState wheelState;\n    HighRollers highrollers;\n  }\n\n  struct HighRollers {\n    address[] ids;\n    bool[] redBets;\n  }\n\n  constructor() public {\n    House = msg.sender;\n  }\n\n  function spinWheel(uint8 numOfPlayers, bytes32 hashedOutcome, uint256 betAmount) external {\n    address croupier = msg.sender;\n    /*\n     * @todo\n     * require ante to be > 0\n     */\n    require(numOfPlayers > 0 && numOfPlayers < 7);\n    RouletteWheel memory table = RouletteWheel(croupier, hashedOutcome, betAmount, WheelState.SPINNING, HighRollers(new address[](numOfPlayers), new bool[](numOfPlayers)));\n    uint16 tableNumber = uint16(tables.length);\n    tables.push(table);\n    emit AwaitingBets(croupier, tableNumber, betAmount);\n  }\n\n  function tableExists(uint16 tableNumber) view private returns(bool exists) {\n    exists = (tableNumber >= 0 && tableNumber < tables.length);\n  }\n\n  /*\n   * You can only bet red or black. true -> red, false -> black\n   */\n  function placeBet(uint16 tableNumber, bool red) external payable {\n    require(tableExists(tableNumber));\n    RouletteWheel storage table = tables[tableNumber];\n    uint256 betAmount = msg.value;\n    /*\n     * @todo\n     * 1. make sure sender hasn't already called PlaceBet\n     * 2. make sure the croupier doesn't call PlaceBet\n     */\n    require(betAmount == table.betAmount && table.wheelState == WheelState.SPINNING);\n    table.highrollers.ids.push(msg.sender);\n    table.highrollers.redBets.push(red);\n    emit BetPlaced(msg.sender, tableNumber, red);\n\n    address[] memory ids = table.highrollers.ids;\n    if(ids[ids.length - 1] == address(0)) {\n      table.wheelState = WheelState.STOPPED;\n      emit betsClosed(tableNumber);\n    }\n  }\n\n  function getIntegerFraction(uint256 numerator, uint8 denominator) private pure returns(uint256) {\n    return (numerator - (numerator % denominator)) / denominator;\n  }\n\n  function cashOut(uint16 tableNumber, bool red, bytes32 salt) external {\n    require(tableExists(tableNumber));\n    bytes32 hashedOutcome = keccak256(\n     abi.encodePacked(red ? 'red' : 'black', salt)\n    );\n\n    RouletteWheel storage table = tables[tableNumber];\n    require(table.hashedOutcome == hashedOutcome);\n\n    HighRollers memory players = table.highrollers;\n\n    uint8 winners = 0;\n    for(uint8 i=0; i < players.ids.length; i++) {\n      winners += (players.redBets[i] == red) ? 1 : 0;\n    }\n\n    uint256 pot = players.ids.length * table.betAmount;\n\n    if(winners == 0) {\n      House.transfer(getIntegerFraction(pot, 2) + pot % 2);\n      table.croupier.transfer(getIntegerFraction(pot, 2));\n      emit Results(table.croupier, tableNumber, true);\n    } else {\n      emit Results(table.croupier, tableNumber, false);\n\n      uint256 portion = getIntegerFraction(pot, winners);\n      for(uint8 j=0; j < players.ids.length; j++) {\n        bool won = (players.redBets[j] == red);\n        if (won) {\n          players.ids[j].transfer(portion);\n        }\n        emit Results(players.ids[j], tableNumber, won);\n      }\n\n      House.transfer(pot % winners); // this will usually be in the range of 1 or 2 wei = 0.000000000000000001 USD\n      table.wheelState = WheelState.CLOSED;\n\n      emit TableClosed(tableNumber);\n    }\n\n  }\n}\n",
  "sourcePath": "/Users/jake.wood/Documents/works/blockchain/workshop/intro-to-blockchain/project/multipartyroulette/contracts/MultiPartyRoulette.sol",
  "compiler": {
    "name": "solc",
    "version": "0.4.24+commit.e67f0147.Emscripten.clang"
  },
  "schemaVersion": "2.0.1",
  "updatedAt": "2018-09-18T16:08:44.489Z"
}