{
  "contractName": "RockPaperScissors",
  "abi": [
    {
      "anonymous": false,
      "inputs": [
        {
          "indexed": false,
          "name": "creator",
          "type": "address"
        },
        {
          "indexed": false,
          "name": "gameNumber",
          "type": "uint16"
        },
        {
          "indexed": false,
          "name": "bet",
          "type": "uint256"
        }
      ],
      "name": "GameCreated",
      "type": "event"
    },
    {
      "anonymous": false,
      "inputs": [
        {
          "indexed": false,
          "name": "players",
          "type": "address[2]"
        },
        {
          "indexed": false,
          "name": "gameNumber",
          "type": "uint16"
        }
      ],
      "name": "GameStarted",
      "type": "event"
    },
    {
      "anonymous": false,
      "inputs": [
        {
          "indexed": false,
          "name": "winner",
          "type": "address"
        },
        {
          "indexed": false,
          "name": "gameNumber",
          "type": "uint16"
        }
      ],
      "name": "GameComplete",
      "type": "event"
    },
    {
      "constant": false,
      "inputs": [
        {
          "name": "participant",
          "type": "address"
        }
      ],
      "name": "createGame",
      "outputs": [],
      "payable": true,
      "stateMutability": "payable",
      "type": "function"
    },
    {
      "constant": false,
      "inputs": [
        {
          "name": "gameNumber",
          "type": "uint16"
        }
      ],
      "name": "joinGame",
      "outputs": [],
      "payable": true,
      "stateMutability": "payable",
      "type": "function"
    },
    {
      "constant": false,
      "inputs": [
        {
          "name": "gameNumber",
          "type": "uint16"
        },
        {
          "name": "moveNumber",
          "type": "uint8"
        }
      ],
      "name": "makeMove",
      "outputs": [],
      "payable": false,
      "stateMutability": "nonpayable",
      "type": "function"
    }
  ],
  "bytecode": "0x608060405234801561001057600080fd5b50610a1c806100206000396000f300608060405260043610610057576000357c0100000000000000000000000000000000000000000000000000000000900463ffffffff168063474d0b5a1461005c578063513fa3ca14610092578063a4bf2214146100d0575b600080fd5b610090600480360381019080803573ffffffffffffffffffffffffffffffffffffffff1690602001909291905050506100f4565b005b34801561009e57600080fd5b506100ce600480360381019080803561ffff169060200190929190803560ff1690602001909291905050506102c7565b005b6100f2600480360381019080803561ffff1690602001909291905050506106ce565b005b6100fc610976565b60006080604051908101604052803373ffffffffffffffffffffffffffffffffffffffff1681526020018473ffffffffffffffffffffffffffffffffffffffff168152602001600060ff1681526020013481525091506000829080600181540180825580915050906001820390600052602060002090600302016000909192909190915060008201518160000160006101000a81548173ffffffffffffffffffffffffffffffffffffffff021916908373ffffffffffffffffffffffffffffffffffffffff16021790555060208201518160010160006101000a81548173ffffffffffffffffffffffffffffffffffffffff021916908373ffffffffffffffffffffffffffffffffffffffff16021790555060408201518160010160146101000a81548160ff021916908360ff1602179055506060820151816002015550505060016000805490500390507f438b654c969b3822a67f0b05ae8c9ac25825a6ee4e076866bf3c4317a765e863338234604051808473ffffffffffffffffffffffffffffffffffffffff1673ffffffffffffffffffffffffffffffffffffffff1681526020018361ffff1661ffff168152602001828152602001935050505060405180910390a1505050565b60008060008060008661ffff168154811015156102e057fe5b906000526020600020906003020193503373ffffffffffffffffffffffffffffffffffffffff168460000160009054906101000a900473ffffffffffffffffffffffffffffffffffffffff1673ffffffffffffffffffffffffffffffffffffffff16148061039d57503373ffffffffffffffffffffffffffffffffffffffff168460010160009054906101000a900473ffffffffffffffffffffffffffffffffffffffff1673ffffffffffffffffffffffffffffffffffffffff16145b80156103ac575060008560ff16115b80156103bc575060038560ff1611155b15156103c757600080fd5b60008460010160149054906101000a900460ff1660ff16141561040657848460010160146101000a81548160ff021916908360ff1602179055506106c6565b8460ff168460010160149054906101000a900460ff1660ff16141561050c578360000160009054906101000a900473ffffffffffffffffffffffffffffffffffffffff1673ffffffffffffffffffffffffffffffffffffffff166108fc85600201549081150290604051600060405180830381858888f19350505050158015610493573d6000803e3d6000fd5b508360010160009054906101000a900473ffffffffffffffffffffffffffffffffffffffff1673ffffffffffffffffffffffffffffffffffffffff166108fc85600201549081150290604051600060405180830381858888f19350505050158015610502573d6000803e3d6000fd5b5060009250610604565b8360010160149054906101000a900460ff1660ff16600160038760ff1681151561053257fe5b060160ff16141591503373ffffffffffffffffffffffffffffffffffffffff168460000160009054906101000a900473ffffffffffffffffffffffffffffffffffffffff1673ffffffffffffffffffffffffffffffffffffffff1614905080801561059a5750815b806105ad5750801580156105ac575081155b5b6105db578360010160009054906101000a900473ffffffffffffffffffffffffffffffffffffffff16610601565b8360000160009054906101000a900473ffffffffffffffffffffffffffffffffffffffff165b92505b8273ffffffffffffffffffffffffffffffffffffffff166108fc85600201546002029081150290604051600060405180830381858888f19350505050158015610651573d6000803e3d6000fd5b507f7fecb2dd9a0fd872f0ab2c93d5cfa4bf268a03aed16c17017cb6be4651ebc5868387604051808373ffffffffffffffffffffffffffffffffffffffff1673ffffffffffffffffffffffffffffffffffffffff1681526020018261ffff1661ffff1681526020019250505060405180910390a15b505050505050565b6106d6610976565b6000806106e16109ce565b60008561ffff168154811015156106f457fe5b9060005260206000209060030201608060405190810160405290816000820160009054906101000a900473ffffffffffffffffffffffffffffffffffffffff1673ffffffffffffffffffffffffffffffffffffffff1673ffffffffffffffffffffffffffffffffffffffff1681526020016001820160009054906101000a900473ffffffffffffffffffffffffffffffffffffffff1673ffffffffffffffffffffffffffffffffffffffff1673ffffffffffffffffffffffffffffffffffffffff1681526020016001820160149054906101000a900460ff1660ff1660ff16815260200160028201548152505093508360600151925034915082821015801561082c5750836020015173ffffffffffffffffffffffffffffffffffffffff163373ffffffffffffffffffffffffffffffffffffffff16145b151561083757600080fd5b82821115610889573373ffffffffffffffffffffffffffffffffffffffff166108fc8484039081150290604051600060405180830381858888f19350505050158015610887573d6000803e3d6000fd5b505b6040805190810160405280856000015173ffffffffffffffffffffffffffffffffffffffff1673ffffffffffffffffffffffffffffffffffffffff168152602001856020015173ffffffffffffffffffffffffffffffffffffffff1673ffffffffffffffffffffffffffffffffffffffff1681525090507f7faa11ab208991fbb9c84fac1c88c045aaf403918701288683d7ad3d0c095e9781866040518083600260200280838360005b8381101561094e578082015181840152602081019050610933565b505050509050018261ffff1661ffff1681526020019250505060405180910390a15050505050565b608060405190810160405280600073ffffffffffffffffffffffffffffffffffffffff168152602001600073ffffffffffffffffffffffffffffffffffffffff168152602001600060ff168152602001600081525090565b60408051908101604052806002906020820280388339808201915050905050905600a165627a7a723058206bcb47cb04c136bae326c387569f8d0a88f4e7ca815a58c6279a4dd656035eb60029",
  "source": "pragma solidity ^0.4.19;\n\ncontract RockPaperScissors {\n  event GameCreated(address creator, uint16 gameNumber, uint256 bet);\n  event GameStarted(address[2] players, uint16 gameNumber);\n  event GameComplete(address winner, uint16 gameNumber);\n\n  Game[] games;\n\n  struct Game {\n    address p1;\n    address p2;\n    uint8 move;\n    uint256 bet;\n  }\n\n  /**\n * Use this endpoint to create a game.\n * It is a payable endpoint meaning the creator of the game will send ether directly to it.\n * The ether sent to the contract should be used as the bet for the game.\n */\n  function createGame(address participant) public payable {\n    Game memory g = Game(msg.sender, participant, 0, msg.value);\n    games.push(g);\n    uint16 gameNumber = uint16(games.length - 1);\n    GameCreated(msg.sender, gameNumber, msg.value);\n  }\n\n  /**\n * Use this endpoint to join a game.\n * It is a payable endpoint meaning the joining participant will send ether directly to it.\n * The ether sent to the contract should be used as the bet for the game.\n * Any additional ether that exceeds the original bet of the creator should be refunded.\n */\n  function joinGame(uint16 gameNumber) public payable {\n    Game memory g = games[gameNumber];\n    uint256 oBet = g.bet;\n    uint256 newBet = msg.value;\n    require(newBet >= oBet && msg.sender == g.p2);\n    if(newBet > oBet){\n      msg.sender.transfer(newBet - oBet);\n    }\n    address[2] memory participants = [g.p1, g.p2];\n    GameStarted(participants, gameNumber);\n  }\n\n  /**\n * Use this endpoint to make a move during a game\n */\n  function makeMove(uint16 gameNumber, uint8 moveNumber) public {\n    Game storage g = games[gameNumber];\n    require((g.p1 == msg.sender || g.p2 == msg.sender) && moveNumber > 0 && moveNumber <= 3);\n    if(g.move == 0) {\n      g.move = moveNumber;\n    } else {\n      address winner;\n      if(g.move == moveNumber) {\n        g.p1.transfer(g.bet);\n        g.p2.transfer(g.bet);\n        winner = address(0);\n      } else {\n        bool win = moveNumber % 3 + 1 != g.move;\n        bool p1 = g.p1 == msg.sender;\n        winner = (p1 && win || (!p1 && !win)) ? g.p1 : g.p2;\n      }\n      winner.transfer(2 * g.bet);\n      GameComplete(winner, gameNumber);\n    }\n  }\n}\n",
  "sourcePath": "/Users/jake.wood/Documents/works/blockchain/workshop/intro-to-blockchain/project/dapp_9/contracts/RockPaperScissors.sol",
  "compiler": {
    "name": "solc",
    "version": "0.4.24+commit.e67f0147.Emscripten.clang"
  },
  "schemaVersion": "2.0.1",
  "updatedAt": "2018-09-11T18:03:50.471Z"
}